:030000000208B83B
:0C08B800787FE4F6D8FD7581670208FF28
:100F780057656C636F6D6521005320202020202069
:100F88006D5620512000472020202020206D56201B
:0B0F9800640068656C6C6F210D0A009E
:100DD500D2AF1210337BFF7A0F79787D04E4FF12CE
:100DE5000F4812108C120B78120FA37FFA120FE71F
:100DF5007F011210B87BFF7A0F7981E4FDFF120F96
:100E0500487BFF7A0F798EE4FD7F01120F487F0240
:060E15001210AD020944B9
:030023000209C906
:1009C900C0E0C0F0C083C082C0D075D000C000C0F4
:1009D90001C002C003C004C005C006C0077BFF7A7E
:1009E9000F799A120F0F30983585995CAF5C121008
:1009F900C8E55CB44003755B01E55BB4011E745D39
:100A09002565F8A65C0565E565B40710755B007595
:100A19006500756400AF5E7E00120BC6C298D007F0
:100A2900D006D005D004D003D002D001D000D0D058
:090A3900D082D083D0F0D0E0326D
:0610D0002B002D00500072
:040FC6000210000015
:060610008B498A4A894B68
:10061600C3E5299DF54DE5289CF54C90000C120389
:10062600A8FFAEF090000E1203A82FFFE5F03EFEE5
:10063600E54D2FFFE54C3E9000108FF01203E09041
:10064600000C1203A8FFAEF0C3E54D9FF54FE54C35
:100656009EF54E90000EEE8FF01203E090000CE532
:100666004C854DF01203E0AF4DAE4C12002EAB4957
:10067600AA4AA94B9000181203A8FDC3EF9DEE9558
:10068600F0900010500AE4F5F01203E0E4FEFF22B9
:100696001203A8FDACF0EC120241AB49AA4AA94BE1
:1006A60090000412048A120136C004C005C006C0B8
:1006B60007AC4CAD4DEC120241AB49AA4AA94B120C
:1006C600046A120136D003D002D001D000120045D0
:1006D600C004C005C006C007AB49AA4AA94B900092
:1006E6000812048AC000C001C002C003AC4EAD4F60
:1006F600EC120241D003D002D001D000120136D054
:0D07060003D002D001D00012004512027A8B
:0107130022C3
:04071400AD07AC067B
:10071800E4F547F5480511E51170020510C3952D5C
:10072800E510952C5003020803E4F510F511FB7A47
:100738000079121206108E478F48D3E5489525E5B3
:10074800246480F8E5476480984006852447852519
:1007580048AE24AF257CFF7DFF120341C3E5489FC7
:10076800EE6480F8E54764809850048E478F48E52A
:10077800482527F527E5473526F526D3E52794FAB2
:10078800E5266480948040067526007527FAC3E53F
:10079800279405E526648094805006752600752701
:1007A80005AF271210D6755603AB27AA267D0DE490
:1007B800FF120A42D3E5489400E547648094807BA1
:1007C800FF40147A1079D07D0C7F01120F487556BE
:1007D80003AB48AA47801D7A1079D27D0C7F01129D
:1007E8000F48AE47AF487CFF7DFF120341AA06AB16
:0B07F800077556037D0D7F01120A42B9
:0108030022D2
:100B78007E007F1C7D007B007A0079121204E075EC
:100B8800150A7514D775132375123C75191775183E
:100B9800B7751751751639751D0A751CD7751BA3BE
:100BA800751A3CE4F526F52775280F7529A0F52454
:0E0BB800752550F52A752B37F52C752D042266
:05001E00AE28AF29220D
:1010010074182529F52974FC3528F528FEAF297CAB
:09101100007D3212035302002697
:10101A0074E82529F52974033528F528FEAF297CBB
:09102A00007D321203530200267E
:100C1300AF15AE14AD13AC127B6F7A127983783AA9
:100C23001200458F158E148D138C127BFF7A107969
:100C3300D47D0AE4FF120F48E4FFFE7D7A7C44ABC7
:100C430015AA14A913A81212013612027AAB07AA25
:0B0C5300067556027D0BE4FF020A420A
:100C5E00AF15AE14AD13AC127B6F7A127983783A5E
:100C6E001200418F158E148D138C127BFF7A107922
:100C7E00D47D0AE4FF120F48E4FFFE7D7A7C44AB7C
:100C8E0015AA14A913A81212013612027AAB07AADA
:0B0C9E00067556027D0BE4FF020A42BF
:100CA900AF15AE14AD13AC127B6F7A127983783A13
:100CB9001200458F158E148D138C127BFF7A1079D3
:100CC900D47D0AE4FF120F48E4FFFE7D7A7C44AB31
:100CD90015AA14A913A81212013612027AAB07AA8F
:0B0CE900067556027D0BE4FF020A4274
:100CF400AF15AE14AD13AC127B6F7A127983783AC8
:100D04001200418F158E148D138C127BFF7A10798B
:100D1400D47D0AE4FF120F48E4FFFE7D7A7C44ABE5
:100D240019AA18A917A81612013612027AAB07AA33
:0B0D3400067556027D0BE4FF020A4228
:100D3F00AF15AE14AD13AC127B6F7A127983783A7C
:100D4F001200458F158E148D138C127BFF7A10793C
:100D5F00D47D0AE4FF120F48E4FFFE7D7A7C44AB9A
:100D6F001DAA1CA91BA81A12013612027AAB07AAD8
:0B0D7F00067556027D0BE4FF020A42DD
:100D8A00AF15AE14AD13AC127B6F7A127983783A31
:100D9A001200418F158E148D138C127BFF7A1079F5
:100DAA00D47D0AE4FF120F48E4FFFE7D7A7C44AB4F
:100DBA001DAA1CA91BA81A12013612027AAB07AA8D
:0B0DCA00067556027D0BE4FF020A4292
:100E9B007405252DF52DE4352CF52C7BFF7A107977
:100EAB00D47D0AE4FF120F48E4FFFE7D7A7C44AB4D
:100EBB001DAA1CA91BA81A12013612027AAB07AA8B
:0B0ECB00067556027D0BE4FF020A4290
:100E5F0074FB252DF52D74FF352CF52C7BFF7A10A7
:100E6F0079D47D0AE4FF120F48E4FFFE7D7A7C44BB
:100E7F00AB1DAA1CA91BA81A12013612027AAB07C6
:0C0E8F00AA067556027D0BE4FF020A4221
:100ED60075B00FE5B0540FF547640F60297F0A120D
:100EE6000FE7E5B0540F640F601CE5B0540FF547EB
:100EF60044F0F5B0E5B054F0FFE5B054F0FEBEF0B6
:080F0600F8E5472FFF227FFFF1
:010F0E0022C0
:1008040020950B7F0A120FE72095037F092220A66B
:100814000B7F0A120FE720A6037F002220A70B7F7D
:100824000A120FE720A7037F012220A60B7F0A12DA
:100834000FE720A6037F002220A70B7F0A120FE7F1
:1008440020A7037F0122120ED6EF1204BA088E7776
:10085400088B7B08887D08857E089AB70897BB08B3
:1008640094BD0891BE08A6D708A3DB08A0DD089DA7
:10087400DE08B2E708AFEB08ACED08A9EE0000080B
:10088400B57F00227F01227F02227F03227F042280
:100894007F05227F06227F07227F08227F09227F8D
:1008A4000A227F0B227F0C227F0D227F0E227F0FD4
:0408B400227FFF227E
:09104C00C2A48F80121055D2A538
:0C1055007F017EA87D16DDFEDEFADFF6CE
:01106100226C
:0810B800C2A312104CC2A522D4
:0810C000D2A312104CC2A522BC
:101033007F381210B87F011210B87F0C1210B87FDE
:09104300061210B87F800210B8FB
:100F4800EF60057552408003E4F552AC051202FBD0
:100F5800601DE55224804CFF1210B81202FBFF12EC
:0F0F680010C01210550C740129F9E43AFA80DE1A
:010F77002257
:020A42008D53D2
:100A44000556EF6008755900755A408005E4F5595C
:100A5400F55AE55624FFF582E434FFF583D3E582A5
:100A64009400E58394004045AF82E5532F14FFE5DD
:100A74005A24804FFF1210B87C007D0AAF03AE02E7
:100A8400120353ED2430F558E43CF557AF581210D7
:100A9400C01210557C007D0AAF03AE02120353AAA4
:0D0AA40006AB07E582158270B4158380B0A3
:010AB1002222
:040FCA0002660000BB
:100FE700AE071FEE6013E4FCFDC3ED9452EC9403CF
:090FF70050EE0DBD00010C80F06C
:0110000022CD
:0B10AD00EF25E042D9E4F5E9F5F92257
:100FA300E4F545F546438902758CFFD28C7F021226
:100FB30010AD75EA8075FA8075EB8075FB807D0254
:030FC300020AB26D
:100AB200EF7016ED14600C14600B14600A240370BE
:100AC2005C803F8045804B8051BF0122ED14600F56
:100AD2001460111460132403704375DB42803E7569
:100AE200DB53803975DB63803475DB73802FBF0283
:100AF2002CED14601214601714601C2403701E7510
:100B0200DB4275DA42801675DB5375DA53800E7557
:100B1200DB6375DA63800675DB7375DA73D2DE2206
:03003B0002109D13
:10109D0030D802C2D830D902C2D930DF02C2DF3215
:050026008FEA8FFA22B1
:0510D6008FEB8FFB22EF
:100FCE000632302E30305600023C00000230000057
:080FDE00023E0000022E000299
:10094400E4F545F546F53AF53BF545F546C3E54688
:10095400952FE545952E503C753800AE38AF39E4F7
:10096400FCFD7B5C7A12F9F812040DE47BFFFAF9C2
:10097400F8120E1BAC2EAD2F120353EF253BF53BA3
:10098400EE353AF53A7F0A120FE70546E54670BDA3
:10099400054580B9AF3BAE3A12071412001EAA06F1
:1009A400AB077556047D02E4FF120A42755604AB88
:1009B4003BAA3A7D027F01120A421208047E001209
:0209C4000BC660
:0309C600020944DF
:100BC600EE7049EFB40A005043900BD6F82828730C
:100BD600020BF4020BF7020BFA020BFD020C0002E9
:100BE6000C03020C06020C09020C0C020C0F02107C
:100BF6000102101A020C13020C5E020CA9020CF47C
:0D0C0600020D3F020D8A020E9B120E5F22AE
:10106200E4F5BDD2AD759DE0E53D4488F5BC7F0257
:051072007E00020003F6
:10000300EF1FAA0670011E4A60107C137D88ED1D48
:0A001300AA0470011C4A60E880F4A2
:01001D0022C0
:03002B00020B22A3
:100B2200C0E0C0D075D00875BC00E5316402453024
:100B32007029E53D453C7006AFBDF5388F39053D5E
:100B4200E53D7002053CD39401E53C9400400675F6
:100B52003C00753D007530007531000531E531709E
:100B6200020530053FE53F7002053EE53D4488F54C
:060B7200BCD0D0D0E0323F
:10108C00758920759850758DF3858D8BD28ED2AC69
:01109C002231
:0810C8008F993099FDC29922B5
:060F0F008B528A53895445
:100F1500E4F555F556AB52AA53A954855682855525
:100F250083120314FF1210C80556E55670020555C5
:100F3500AB52AA53A954121077C3E5569FE5559EA7
:020F450040D397
:010F47002287
:10003E000202E6E86480F8E933E83360110460F008
:10004E00ED33EC337009E8FCE9FDEAFEEBFF220428
:10005E0060DED3EB9FEA9EE99DE8C2E78CF0C2F723
:10006E0095F0400CE8CCF8E9CDF9EACEFAEBCFFBEF
:10007E001202B185D0F05804700320D5B3E8047095
:10008E00075002B2D50202F092D5EC0460F7E4CC30
:10009E00C0E0C398F8603B94186008400DD0E0FBB8
:1000AE000202C8E4FBFAC9FC8028E830E406E4C981
:1000BE00FBE4CAFCE830E305E4C9CACBFCE854070C
:1000CE006010F8C3E913F9EA13FAEB13FBEC13FC17
:1000DE00D8F130F52FC3E49CFCEF9BFFEE9AFEEDBA
:1000EE0099FDD0E0FBEF4E4D4C701222DB03020265
:1000FE00EDEC2CFCEF33FFEE33FEED33FDED30E790
:10010E00EB0202C8EF2BFFEE3AFEED39FDD0E0FB1D
:10011E0050130BBB00030202F0ED13FDEE13FEEFC6
:08012E0013FFEC13FC0202C8F0
:10013600EC4D6011E8497017ED33EC3304600DE4C3
:10014600FCFFFEFD22E933E8330470F80202E612F2
:1001560002B158046009E4CC2481500628500902F3
:1001660002F02840030202EDC0E0EB4A7044B98079
:1001760006D0E0FB0202DCEF4E701CBD8008EBFFF0
:10018600EAFEE9FD80EBE98DF0A4FEE5F002021F30
:10019600E9CDF9EAFEEBFFEF89F0A4FCE5F0CE89A4
:1001A600F0A42EFFE435F0CD89F0A42DFEE435F061
:1001B6008067EF4E7005BD80D780C3EF8BF0A4AC8F
:1001C600F0EE8BF0A42CFCE435F0F8EF8AF0A42CCA
:1001D600E5F038FCE433CB8DF0A42CFCE5F03BF8DD
:1001E600EE8AF0A42CFCE5F038F8E433CF89F0A4CD
:1001F6002CFCE5F038CF3400CE89F0A42FFFE5F0D3
:100206003EFEE433C98DF0A42EFEE5F039CD8AF02A
:10021600A42FFFE5F03EFEE43DFD33D0E0FB5007A2
:100226000BBB000F0202F0EC2CFCEF33FFEE33FEAB
:06023600ED33FD0202C8D9
:10023C0075F020800E75F010800575F0087D007E3D
:10024C00007F003392D530D50312045CEC334010A0
:10025C00EF33FFEE33FEED33FDEC33FCD5F0ED2246
:0E026C00E5F0247EA2D513CC92E7CDCEFF2282
:10027A00EDD2E7CD33EC3392D524814006E4FFFE7C
:10028A00FDFC22FCE4CFCECDCC24E0501174FF80DB
:10029A00EDC3CC13CCCD13CDCE13CECF13CF047078
:0702AA00F030D5DE02045C18
:1002B100E9D2E7C933E833F892D5EDD2E7CD33EC93
:0702C10033FC5002B2D5220C
:1002C800EC30E7100FBF000C0EBE00080DBD000497
:1002D8000BEB6014A2D5EB13FCED92E7FD2274FF43
:1002E800FCFDFEFF22E480F8A2D574FF13FC7D809C
:0302F800E480EFB0
:1008C400020DD5E493A3F8E493A34003F68001F268
:1008D40008DFF48029E493A3F85407240CC8C33335
:1008E400C4540F4420C8834004F456800146F6DF04
:1008F400E4800B0102040810204080900FC6E47EBF
:10090400019360BCA3FF543F30E509541FFEE493F8
:10091400A360010ECF54C025E060A840B8E493A3BF
:10092400FAE493A3F8E493A3C8C582C8CAC583CAEA
:10093400F0A3C8C582C8CAC583CADFE9DEE780BEA2
:010FE600000A
:1002FB00BB010689828A83E0225002E722BBFE0201
:09030B00E32289828A83E4932233
:10031400BB010CE58229F582E5833AF583E022509E
:1003240006E92582F8E622BBFE06E92582F8E222E8
:0D033400E58229F582E5833AF583E4932202
:10034100EF8DF0A4A8F0CF8CF0A428CE8DF0A42ED0
:02035100FE228A
:10035300BC000BBE0029EF8DF084FFADF022E4CC8E
:10036300F875F008EF2FFFEE33FEEC33FCEE9DEC57
:10037300984005FCEE9DFE0FD5F0E9E4CEFD22ED9D
:10038300F8F5F0EE8420D21CFEADF075F008EF2FE7
:10039300FFED33FD4007985006D5F0F222C398FDD8
:0503A3000FD5F0EA2275
:1003A800BB0110E58229F582E5833AF583E0F5F093
:1003B800A3E0225009E92582F886F008E622BBFE70
:1003C8000AE92582F8E2F5F008E222E5832AF583B6
:0803D800E993F5F0A3E993227B
:1003E000F8BB0111E58229F582E5833AF583E8F04F
:1003F000E5F0A3F0225009E92582C8F608A6F0220C
:0D040000BBFE09E92582C8F2E5F008F222F2
:10040D00E88FF0A4CC8BF0A42CFCE98EF0A42CFC8E
:10041D008AF0EDA42CFCEA8EF0A4CDA8F08BF0A40C
:10042D002DCC3825F0FDE98FF0A42CCD35F0FCEB6B
:10043D008EF0A4FEA9F0EB8FF0A4CFC5F02ECD3930
:0F044D00FEE43CFCEAA42DCE35F0FDE43CFC229D
:100E1B00C2D5E830E70FB2D5E4C39BFBE49AFAE402
:100E2B0099F9E498F8EC30E717B2D5120E51120588
:100E3B0048E4C39BFBE49AFAE499F9E498F880033D
:100E4B0012054830D50DE4C39FFFE49EFEE49DFDE3
:040E5B00E49CFC22F5
:0E045C00C3E49FFFE49EFEE49DFDE49CFC22B1
:10046A00BB010789828A830205E75005E9F802057C
:10047A00DABBFE05E9F80205F389828A83020600DF
:10048A00BB010DE58229F582E5833AF5830205E78A
:10049A005007E92582F80205DABBFE07E92582F84A
:1004AA000205F3E58229F582E5833AF5830206001F
:1004BA00D083D082F8E4937012740193700DA3A3D1
:1004CA0093F8740193F5828883E4737402936860E5
:0604DA00EFA3A3A380DFE5
:0C002E00EE30E707C3E49FFFE49EFE22D3
:10107700E4FFFE1202FB600C0FEF70010E09E9702E
:05108700F20A80EF22D7
:1004E000EF4E6012EF60010EEDBB010B89828A8333
:1004F000F0A3DFFCDEFA2289F05007F709DFFCA940
:0C050000F022BBFEFCF309DFFCA9F02296
:10050C0075F008758200EF2FFFEE33FECD33CDCCA6
:10051C0033CCC58233C5829BED9AEC99E582984029
:10052C000CF582EE9BFEED9AFDEC99FC0FD5F0D606
:10053C00E4CEFBE4CDFAE4CCF9A88222B800C1B930
:10054C000059BA002DEC8BF084CFCECDFCE5F0CB6E
:10055C00F97818EF2FFFEE33FEED33FDEC33FCEBA7
:10056C0033FB10D703994004EB99FB0FD8E5E4F962
:10057C00FA227818EF2FFFEE33FEED33FDEC33FC4F
:10058C00C933C910D7059BE99A4007EC9BFCE99A43
:10059C00F90FD8E0E4C9FAE4CCFB2275F010EF2F88
:1005AC00FFEE33FEED33FDCC33CCC833C810D70788
:1005BC009BEC9AE899400AED9BFDEC9AFCE899F8C3
:0E05CC000FD5F0DAE4CDFBE4CCFAE4C8F92256
:0D05DA00E6FB08E6F908E6FA08E6CBF82291
:0C05E700E0F8A3E0F9A3E0FAA3E0FB2297
:0D05F300E2FB08E2F908E2FA08E2CBF82288
:10060000E493F8740193F9740293FA740393FB2250
:00000001FF
