:030000000205975F
:0C059700787FE4F6D8FD7581390205DE9E
:1000030057656C636F6D6521002020202020202020
:100013002020206D5600202020202020202020504A
:04002300574D250010
:1007D100D2AF1209AE7BFF7A0079037D04E4FF12E8
:1007E10008EC7FFA12097B7F01120A4F7BFF7A0026
:1007F100790CE4FDFF1208EC7BFF7A007919E4FD26
:0B0801007F011208EC1209DD0208B6AE
:090A4600706964206F75743A00B8
:0409950002320BB867
:090A2B00E5331533700215322287
:090A34000533E53370020532229E
:050A6700AE32AF3322A6
:090A3D007E007F0A7D000201F039
:1004F700C3E5339DF52DE5329CF52C9000061201DE
:1005070016FFAEF0C3E52D9FF52FE52C9EF52EEFD8
:1005170025E0FFEE33FEC3E52D9FFFE52C9EFE9001
:100527000008120116ACF02FF52BEE3CF52A9000CF
:1005370006120116FF900008E5F08FF012014E90A9
:100547000006E52C852DF012014E900002120116CF
:10055700FFAEF0AC2CAD2D120084C006C007120010
:10056700EBFFAEF0AC2EAD2F120084D0E02FFDD004
:10057700E03EFCC004C005900004120116FFAEF077
:0F058700AC2AAD2B120084D0E02FFFD0E03EFE57
:010596002242
:10093F007B017A007900120A3D900000E4F0A37465
:10094F000AF0A3E4F0A37405F0A3E4F0A37404F099
:01095F002275
:0403AA008E278F28E3
:1003AE00852730852831D3E5339531E532953050A8
:1003BE0003020443E5339531FFE5329530FED3EF6A
:1003CE009432EE940040047F0A8077E4F529852765
:1003DE00348528357B017A007900AD35AC341204B2
:1003EE00F78E368F370529E529C3940A40E07BFF47
:1003FE007A0A7946120845AF35120A5FAF37120AEC
:10040E005F7F0D120A5F7F0A120A5FC3E53794F011
:10041E00E536940040067536007537F0D3E537940F
:10042E0014E53694005006753600753714C374FF04
:10043E009537FF800DD3E5339531E5329530500574
:05044E007FFA120A71A3
:010453002286
:10080C0075B00FE5B0540FF525640F60297F0A12FF
:10081C00097BE5B0540F640F601CE5B0540FF5254F
:10082C0044F0F5B0E5B054F0FFE5B054F0FEBEF086
:08083C00F8E5252FFF227FFFE4
:010844002291
:1006230020A60B7F0A12097B20A6037F002220A7A6
:100633000B7F0A12097B20A7037F012212080CEF0C
:100643001201CA06837706807B067D7D067A7E06C5
:100653008FB7068CBB0689BD0686BE069BD7069858
:10066300DB0695DD0692DE06A7E706A4EB06A1ED01
:10067300069EEE000006AA7F00227F01227F02224F
:100683007F03227F04227F05227F06227F07227FAA
:1006930008227F09227F0A227F0B227F0C227F0DF3
:0A06A300227F0E227F0F227FFF222C
:0909C700C2A48F801209D0D2A550
:0C09D0007F017EA87D16DDFEDEFADFF65A
:0109DC0022F8
:080A4F00C2A31209C7C2A522CF
:080A5700D2A31209C7C2A522B7
:1009AE007F38120A4F7F01120A4F7F0C120A4F7FB7
:0909BE0006120A4F7F80020A4F65
:1008EC00EF60057523408003E4F523AC0512003E50
:1008FC00601DE52324804CFF120A4F12003EFF12AC
:0F090C000A571209D00C740129F9E43AFA80DE77
:01091B0022B9
:0206AD008D2896
:1006AF00052BEF6008752E00752F408005E4F52EA1
:1006BF00F52FE52B24FFF582E434FFF583D3E58294
:1006CF009400E58394004045AF82E5282F14FFE5A1
:1006DF002F24804FFF120A4F7C007D0AAF03AE021A
:1006EF00120096ED2430F52DE43CF52CAF2D120AB7
:1006FF00571209D07C007D0AAF03AE02120096AAF2
:0D070F0006AB07E582158270B4158380B03B
:01071C0022BA
:040999000238000020
:10097B00AE071FEE6013E4FCFDC3ED9452EC940341
:09098B0050EE0DBD00010C80F0DE
:010994002240
:0B002E00EF25E042D9E4F5E9F5F922E6
:10091C00E4F525F526438902758CFFD28C7F0212F3
:10092C00002E75EA8075FA8075EB8075FB807D0270
:03093C0002071D92
:10071D00EF7016ED14600C14600B14600A24037056
:10072D005C803F8045804B8051BF0122ED14600FEE
:10073D001460111460132403704375DB42803E7501
:10074D00DB53803975DB63803475DB73802FBF021B
:10075D002CED14601214601714601C2403701E75A8
:10076D00DB4275DA42801675DB5375DA53800E75F0
:10077D00DB6375DA63800675DB7375DA73D2DE229F
:03003B00020A1B9B
:100A1B0030D802C2D830D902C2D930DF02C2DF329D
:050A6C008FEA8FFA2261
:050A71008FEB8FFB225A
:10099D000612302E30305600021A00000210000AE6
:1008B600E4F523F52412091C7F0212002E7FF012A4
:1008C6000A6C1202EA1204541206237523008F24BE
:1008D600E52445237003120A2BE5246401452370A1
:0608E600E1120A3480DC7F
:1002EA00E4F525F526F518AE18AF19FCFD7B5C7A06
:1002FA0012F9F812017BE47BFFFAF9F812078D8EE6
:10030A00258F261203AAAE25AF267C037DE81200AC
:10031A00968F13AE25AF267C037DE81200968C25B6
:10032A008D26AE25AF267C007D641200968F14AE12
:10033A0025AF267C007D641200968C258D26AE257D
:10034A00AF267C007D0A1200968F15AE25AF267C5B
:10035A00007D0A1200968D16E516FB7A00752B02AF
:10036A007D06E4FF1206ADE515FB7A00752B027DCA
:10037A0005E4FF1206ADE514FB7A00752B027D0435
:10038A00E4FF1206ADE513FB7A00752B027D03E448
:10039A00FF1206AD752B02E4FBFA7D02FF0206ADE1
:10045400E4FBFA120A67AA06AB077C037DE81200E4
:10046400968F1F7C037DE8AF03AE02120096AA04A8
:10047400AB057C007D64AF03AE021200968F207C36
:10048400007D64AF03AE02120096AA04AB057C00A3
:100494007D0AAF03AE021200968F21AE02AF037C39
:1004A400007D0A1200968D22E522FB7A00752B024C
:1004B4007D067F011206ADE521FB7A00752B027DD6
:1004C400057F011206ADE520FB7A00752B027D0441
:1004D4007F011206ADE51FFB7A00752B027D037FB9
:1004E400011206ADE51EFB7A00752B027D027F0129
:0304F4000206AD50
:1009DD00E4F5BD75A8A0759DE0E51B4488F5BC7FC9
:0609ED00027E0002096019
:10096000EF1FAA0670011E4A60107C137D88ED1DE2
:0A097000AA0470011C4A60E880F43C
:01097A00225A
:03002B0002087E4A
:10087E00C0E0C0D075D00875BC00E51B451A7006E7
:10088E00AFBDF5188F19051BE51B7002051AD39421
:10089E0001E51A94004006751A00751B00E51B440D
:0808AE0088F5BCD0D0D0E03287
:100A0800438780759850759CB2438E04438E01438A
:030A18008E10221B
:080A5F008F993099FDC2992224
:060845008B2A8A2B892C8E
:10084B00E4F52DF52EAB2AAA2BA92C852E82852D0E
:10085B0083120057FF120A5F052EE52E7002052D3D
:10086B00AB2AAA2BA92C1209F3C3E52E9FE52D9ECB
:02087B0040D368
:01087D002258
:1005A3000207D1E493A3F8E493A34003F68001F296
:1005B30008DFF48029E493A3F85407240CC8C33359
:1005C300C4540F4420C8834004F456800146F6DF28
:1005D300E4800B0102040810204080900995E47E1A
:1005E300019360BCA3FF543F30E509541FFEE4931D
:1005F300A360010ECF54C025E060A840B8E493A3E4
:10060300FAE493A3F8E493A3C8C582C8CAC583CA0E
:10061300F0A3C8C582C8CAC583CADFE9DEE780BEC6
:0109AD000049
:10003E00BB010689828A83E0225002E722BBFE02C0
:09004E00E32289828A83E49322F3
:10005700BB010CE58229F582E5833AF583E022505E
:1000670006E92582F8E622BBFE06E92582F8E222A8
:0D007700E58229F582E5833AF583E49322C2
:10008400EF8DF0A4A8F0CF8CF0A428CE8DF0A42E90
:02009400FE224A
:10009600BC000BBE0029EF8DF084FFADF022E4CC4E
:1000A600F875F008EF2FFFEE33FEEC33FCEE9DEC17
:1000B600984005FCEE9DFE0FD5F0E9E4CEFD22ED5D
:1000C600F8F5F0EE8420D21CFEADF075F008EF2FA7
:1000D600FFED33FD4007985006D5F0F222C398FD98
:0500E6000FD5F0EA2235
:1000EB00BB010A89828A83E0F5F0A3E022500687E0
:1000FB00F009E71922BBFE07E3F5F009E3192289A2
:0B010B00828A83E493F5F074019322D4
:10011600BB0110E58229F582E5833AF583E0F5F027
:10012600A3E0225009E92582F886F008E622BBFE04
:100136000AE92582F8E2F5F008E222E5832AF5834A
:08014600E993F5F0A3E993220F
:10014E00F8BB0111E58229F582E5833AF583E8F0E3
:10015E00E5F0A3F0225009E92582C8F608A6F022A0
:0D016E00BBFE09E92582C8F2E5F008F22287
:10017B00E88FF0A4CC8BF0A42CFCE98EF0A42CFC23
:10018B008AF0EDA42CFCEA8EF0A4CDA8F08BF0A4A1
:10019B002DCC3825F0FDE98FF0A42CCD35F0FCEB00
:1001AB008EF0A4FEA9F0EB8FF0A4CFC5F02ECD39C5
:0F01BB00FEE43CFCEAA42DCE35F0FDE43CFC2232
:10078D00C2D5E830E70FB2D5E4C39BFBE49AFAE497
:10079D0099F9E498F8EC30E717B2D51207C31202B5
:1007AD0058E4C39BFBE49AFAE499F9E498F88003C2
:1007BD0012025830D50DE4C39FFFE49EFEE49DFD6B
:0407CD00E49CFC228A
:1001CA00D083D082F8E4937012740193700DA3A3C4
:1001DA0093F8740193F5828883E4737402936860D8
:0601EA00EFA3A3A380DFD8
:1009F300E4FFFE12003E600C0FEF70010E09E97078
:050A0300F20A80EF2261
:1001F000EF4E6012EF60010EEDBB010B89828A8326
:10020000F0A3DFFCDEFA2289F05007F709DFFCA932
:0C021000F022BBFEFCF309DFFCA9F02289
:10021C0075F008758200EF2FFFEE33FECD33CDCC99
:10022C0033CCC58233C5829BED9AEC99E58298401C
:10023C000CF582EE9BFEED9AFDEC99FC0FD5F0D6F9
:10024C00E4CEFBE4CDFAE4CCF9A88222B800C1B923
:10025C000059BA002DEC8BF084CFCECDFCE5F0CB61
:10026C00F97818EF2FFFEE33FEED33FDEC33FCEB9A
:10027C0033FB10D703994004EB99FB0FD8E5E4F955
:10028C00FA227818EF2FFFEE33FEED33FDEC33FC42
:10029C00C933C910D7059BE99A4007EC9BFCE99A36
:1002AC00F90FD8E0E4C9FAE4CCFB2275F010EF2F7B
:1002BC00FFEE33FEED33FDCC33CCC833C810D7077B
:1002CC009BEC9AE899400AED9BFDEC9AFCE899F8B6
:0E02DC000FD5F0DAE4CDFBE4CCFAE4C8F92249
:00000001FF
