:030000000208EF04
:0C08EF00787FE4F6D8FD758156020936CA
:100C470057656C636F6D652100532020202020209D
:100C57006D5620512000472020202020206D56204F
:020C6700640027
:100AF500D2AF120CE17BFF7A0C79477D04E4FF123B
:100B05000BE8120B36120D101200037F01120D5661
:100B15007BFF7A0C7950E4FDFF120BE87BFF7A0C22
:100B2500795DE4FD7F01120BE87F02120D4B020790
:010B3500B609
:020D78002D004C
:060610008B478A4889496E
:10061600C3E5429DF54BE5419CF54A90000C12035B
:10062600A8FFAEF090000E1203A82FFFE5F03EFEE5
:10063600E54B2FFFE54A3E9000108FF01203E09045
:10064600000C1203A8FFAEF0C3E54B9FF54DE54A3B
:100656009EF54C90000EEE8FF01203E090000CE534
:100666004A854BF01203E09000101203A8FDACF08F
:10067600EC120241AB47AA48A94990000412048A29
:10068600120136C004C005C006C007AC4AAD4BEC2B
:10069600120241AB47AA48A94912046A120136D090
:1006A60003D002D001D000120045C004C005C00628
:1006B600C007AB47AA48A94990000812048AC0009F
:1006C600C001C002C003AC4CAD4DEC120241D003D8
:1006D600D002D001D000120136D003D002D001D012
:0706E6000012004512027A28
:0106ED0022EA
:0406EE00AD07AC06A2
:1006F2007B007A00792B1206108E458F46D3E54691
:10070200953EE53D6480F8E5456480984006853D68
:1007120045853E46AE3DAF3E7CFF7DFF120341C3A1
:10072200E5469FEE6480F8E54564809850048E4566
:100732008F46E5462540F540E545353FF53FD3E593
:100742004094FAE53F648094804006753F0075400E
:10075200FAC3E5409405E53F648094805006753FF6
:1007620000754005AF40120D73754B03AB40AA3FB5
:100772007D0DE4FF12097BD3E5469400E5456480D4
:1007820094804009754B03AB46AA45801F7BFF7AD4
:100792000D79787D0C7F01120BE8AE45AF467CFFE8
:1007A2007DFF120341AA06AB07754B037D0D7F0146
:0307B20012097BAE
:0107B5002221
:100B36007E007F187D007B007A00792B1204E07519
:100B46002EA6752D9B752CC4752B3B75326F753192
:100B560012753003752F3BE4F536F535F534F5336C
:100B6600F53FF5407541097542C4F53D753E0F22C6
:05002600AE41AF4222D3
:100C180074182542F54274FC3541F541E54275F0FA
:100C28003284FF120D6EAE41AF427C007D3212035A
:0F0C380053AA06AB07754B037D0CE4FF02097B43
:100C6900AF32AE31AD30AC2F7B6F7A127983783ADF
:100C79001200458F328E318D308C2F7FF47E010228
:020C89000CACB1
:100B760075B00FE5B0540FF545640F60297F0A1272
:100B86000CC7E5B0540F640F601CE5B0540FF54573
:100B960044F0F5B0E5B054F0FFE5B054F0FEBEF019
:080BA600F8E5452FFF227FFF57
:010BAE002224
:1008570020A60B7F0A120CC720A6037F002220A721
:100867000B7F0A120CC720A7037F012220A50B7F4D
:100877000A120CC720A7037F0222120B76EF12047D
:10088700BA08C57708C27B08BF7D08BC7E08D1B708
:1008970008CEBB08CBBD08C8BE08DDD708DADB0821
:1008A700D7DD08D4DE08E9E708E6EB08E3ED08E062
:1008B700EE000008EC7F00227F01227F02227F03E7
:1008C700227F04227F05227F06227F07227F0822BC
:1008D7007F09227F0A227F0B227F0C227F0D227F36
:0808E7000E227F0F227FFF2289
:090CFA00C2A48F80120D03D2A5E3
:0C0D03007F017EA87D16DDFEDEFADFF623
:010D0F0022C1
:080D5600C2A3120CFAC2A5228F
:080D5E00D2A3120CFAC2A52277
:100CE1007F38120D567F01120D567F0C120D567F63
:090CF10006120D567F80020D561B
:100BE800EF60057547408003E4F547AC051202FB4A
:100BF800601DE54724804CFF120D561202FBFF12C0
:0F0C08000D5E120D030C740129F9E43AFA80DE37
:010C170022BA
:02097B008D48A5
:10097D00054BEF6008754E00754F408005E4F54E50
:10098D00F54FE54B24FFF582E434FFF583D3E58283
:10099D009400E58394004045AF82E5482F14FFE5B0
:1009AD004F24804FFF120D567C007D0AAF03AE021F
:1009BD00120353ED2430F54DE43CF54CAF4D120DC3
:1009CD005E120D037C007D0AAF03AE02120353AA23
:0D09DD0006AB07E582158270B4158380B06B
:0109EA0022EA
:040C8B00025500000E
:100CC700AE071FEE6013E4FCFDC3ED9452EC9403F2
:090CD70050EE0DBD00010C80F08F
:010CE00022F1
:0B0D4B00EF25E042D9E4F5E9F5F922BC
:10000300E4F543F544438902758CFFD28C7F0212D9
:100013000D4B75EA8075FA8075EB8075FB807D0268
:030023000209EBE4
:1009EB00EF7016ED14600C14600B14600A24037086
:1009FB005C803F8045804B8051BF0122ED14600F1E
:100A0B001460111460132403704375DB42803E7530
:100A1B00DB53803975DB63803475DB73802FBF024A
:100A2B002CED14601214601714601C2403701E75D7
:100A3B00DB4275DA42801675DB5375DA53800E751F
:100A4B00DB6375DA63800675DB7375DA73D2DE22CE
:03003B00020D3B78
:100D3B0030D802C2D830D902C2D930DF02C2DF327A
:050D6E008FEA8FFA225C
:050D73008FEB8FFB2255
:100C8F000614302E30305600021E000002120000F3
:0C0C9F000220000002100005022907D00E
:1007B600E4F543F544F51CF51DF543F544C3E5445E
:1007C6009511E5439510503C751A00AE1AAF1BE41F
:1007D600FCFD7B5C7A12F9F812040DE47BFFFAF952
:1007E600F8120AB1AC10AD11120353EF251DF51D19
:1007F600EE351CF51C7F0A120CC70544E54470BD96
:10080600054380B9AF1DAE1C1206EE7F90120CC7D1
:10081600120026AA06AB07754B047D02E4FF1209F7
:100826007B754B04AB1DAA1C7D027F0112097B124E
:1008360008577522008F23E52345227003120C18F2
:0E084600E5236401452260030207B6120C6927
:030854000207B6E2
:100D1000E4F5BD75A8A0759DE0E51F4488F5BC7F8E
:060D2000027E00020CAC93
:100CAC00EF1FAA0670011E4A60107C137D88ED1D93
:0A0CBC00AA0470011C4A60E880F4ED
:010CC600220B
:03002B00020A5B6B
:100A5B00C0E0C0D075D00875BC00E5136402451228
:100A6B007029E51F451E7006AFBDF51A8F1B051FBC
:100A7B00E51F7002051ED39401E51E940040067518
:100A8B001E00751F007512007513000513E513701A
:100A9B000205120521E52170020520E51F4488F5AA
:060AAB00BCD0D0D0E03207
:0D002E00438780759850759CFD758E1122DA
:080D66008F993099FDC299221A
:060BAF008B508A518952AF
:100BB500E4F553F554AB50AA51A952855482855397
:100BC50083120314FF120D660554E5547002055394
:100BD500AB50AA51A952120D26C3E5549FE5539E69
:020BE50040D3FB
:010BE70022EB
:10003E000202E6E86480F8E933E83360110460F008
:10004E00ED33EC337009E8FCE9FDEAFEEBFF220428
:10005E0060DED3EB9FEA9EE99DE8C2E78CF0C2F723
:10006E0095F0400CE8CCF8E9CDF9EACEFAEBCFFBEF
:10007E001202B185D0F05804700320D5B3E8047095
:10008E00075002B2D50202F092D5EC0460F7E4CC30
:10009E00C0E0C398F8603B94186008400DD0E0FBB8
:1000AE000202C8E4FBFAC9FC8028E830E406E4C981
:1000BE00FBE4CAFCE830E305E4C9CACBFCE854070C
:1000CE006010F8C3E913F9EA13FAEB13FBEC13FC17
:1000DE00D8F130F52FC3E49CFCEF9BFFEE9AFEEDBA
:1000EE0099FDD0E0FBEF4E4D4C701222DB03020265
:1000FE00EDEC2CFCEF33FFEE33FEED33FDED30E790
:10010E00EB0202C8EF2BFFEE3AFEED39FDD0E0FB1D
:10011E0050130BBB00030202F0ED13FDEE13FEEFC6
:08012E0013FFEC13FC0202C8F0
:10013600EC4D6011E8497017ED33EC3304600DE4C3
:10014600FCFFFEFD22E933E8330470F80202E612F2
:1001560002B158046009E4CC2481500628500902F3
:1001660002F02840030202EDC0E0EB4A7044B98079
:1001760006D0E0FB0202DCEF4E701CBD8008EBFFF0
:10018600EAFEE9FD80EBE98DF0A4FEE5F002021F30
:10019600E9CDF9EAFEEBFFEF89F0A4FCE5F0CE89A4
:1001A600F0A42EFFE435F0CD89F0A42DFEE435F061
:1001B6008067EF4E7005BD80D780C3EF8BF0A4AC8F
:1001C600F0EE8BF0A42CFCE435F0F8EF8AF0A42CCA
:1001D600E5F038FCE433CB8DF0A42CFCE5F03BF8DD
:1001E600EE8AF0A42CFCE5F038F8E433CF89F0A4CD
:1001F6002CFCE5F038CF3400CE89F0A42FFFE5F0D3
:100206003EFEE433C98DF0A42EFEE5F039CD8AF02A
:10021600A42FFFE5F03EFEE43DFD33D0E0FB5007A2
:100226000BBB000F0202F0EC2CFCEF33FFEE33FEAB
:06023600ED33FD0202C8D9
:10023C0075F020800E75F010800575F0087D007E3D
:10024C00007F003392D530D50312045CEC334010A0
:10025C00EF33FFEE33FEED33FDEC33FCD5F0ED2246
:0E026C00E5F0247EA2D513CC92E7CDCEFF2282
:10027A00EDD2E7CD33EC3392D524814006E4FFFE7C
:10028A00FDFC22FCE4CFCECDCC24E0501174FF80DB
:10029A00EDC3CC13CCCD13CDCE13CECF13CF047078
:0702AA00F030D5DE02045C18
:1002B100E9D2E7C933E833F892D5EDD2E7CD33EC93
:0702C10033FC5002B2D5220C
:1002C800EC30E7100FBF000C0EBE00080DBD000497
:1002D8000BEB6014A2D5EB13FCED92E7FD2274FF43
:1002E800FCFDFEFF22E480F8A2D574FF13FC7D809C
:0302F800E480EFB0
:1008FB00020AF5E493A3F8E493A34003F68001F214
:10090B0008DFF48029E493A3F85407240CC8C333FD
:10091B00C4540F4420C8834004F456800146F6DFCC
:10092B00E4800B0102040810204080900C8BE47EC5
:10093B00019360BCA3FF543F30E509541FFEE493C1
:10094B00A360010ECF54C025E060A840B8E493A388
:10095B00FAE493A3F8E493A3C8C582C8CAC583CAB3
:10096B00F0A3C8C582C8CAC583CADFE9DEE780BE6B
:010CAB000048
:1002FB00BB010689828A83E0225002E722BBFE0201
:09030B00E32289828A83E4932233
:10031400BB010CE58229F582E5833AF583E022509E
:1003240006E92582F8E622BBFE06E92582F8E222E8
:0D033400E58229F582E5833AF583E4932202
:10034100EF8DF0A4A8F0CF8CF0A428CE8DF0A42ED0
:02035100FE228A
:10035300BC000BBE0029EF8DF084FFADF022E4CC8E
:10036300F875F008EF2FFFEE33FEEC33FCEE9DEC57
:10037300984005FCEE9DFE0FD5F0E9E4CEFD22ED9D
:10038300F8F5F0EE8420D21CFEADF075F008EF2FE7
:10039300FFED33FD4007985006D5F0F222C398FDD8
:0503A3000FD5F0EA2275
:1003A800BB0110E58229F582E5833AF583E0F5F093
:1003B800A3E0225009E92582F886F008E622BBFE70
:1003C8000AE92582F8E2F5F008E222E5832AF583B6
:0803D800E993F5F0A3E993227B
:1003E000F8BB0111E58229F582E5833AF583E8F04F
:1003F000E5F0A3F0225009E92582C8F608A6F0220C
:0D040000BBFE09E92582C8F2E5F008F222F2
:10040D00E88FF0A4CC8BF0A42CFCE98EF0A42CFC8E
:10041D008AF0EDA42CFCEA8EF0A4CDA8F08BF0A40C
:10042D002DCC3825F0FDE98FF0A42CCD35F0FCEB6B
:10043D008EF0A4FEA9F0EB8FF0A4CFC5F02ECD3930
:0F044D00FEE43CFCEAA42DCE35F0FDE43CFC229D
:100AB100C2D5E830E70FB2D5E4C39BFBE49AFAE470
:100AC10099F9E498F8EC30E717B2D5120AE7120564
:100AD10048E4C39BFBE49AFAE499F9E498F88003AB
:100AE10012054830D50DE4C39FFFE49EFEE49DFD51
:040AF100E49CFC2263
:0E045C00C3E49FFFE49EFEE49DFDE49CFC22B1
:10046A00BB010789828A830205E75005E9F802057C
:10047A00DABBFE05E9F80205F389828A83020600DF
:10048A00BB010DE58229F582E5833AF5830205E78A
:10049A005007E92582F80205DABBFE07E92582F84A
:1004AA000205F3E58229F582E5833AF5830206001F
:1004BA00D083D082F8E4937012740193700DA3A3D1
:1004CA0093F8740193F5828883E4737402936860E5
:0604DA00EFA3A3A380DFE5
:100D2600E4FFFE1202FB600C0FEF70010E09E97082
:050D3600F20A80EF222B
:1004E000EF4E6012EF60010EEDBB010B89828A8333
:1004F000F0A3DFFCDEFA2289F05007F709DFFCA940
:0C050000F022BBFEFCF309DFFCA9F02296
:10050C0075F008758200EF2FFFEE33FECD33CDCCA6
:10051C0033CCC58233C5829BED9AEC99E582984029
:10052C000CF582EE9BFEED9AFDEC99FC0FD5F0D606
:10053C00E4CEFBE4CDFAE4CCF9A88222B800C1B930
:10054C000059BA002DEC8BF084CFCECDFCE5F0CB6E
:10055C00F97818EF2FFFEE33FEED33FDEC33FCEBA7
:10056C0033FB10D703994004EB99FB0FD8E5E4F962
:10057C00FA227818EF2FFFEE33FEED33FDEC33FC4F
:10058C00C933C910D7059BE99A4007EC9BFCE99A43
:10059C00F90FD8E0E4C9FAE4CCFB2275F010EF2F88
:1005AC00FFEE33FEED33FDCC33CCC833C810D70788
:1005BC009BEC9AE899400AED9BFDEC9AFCE899F8C3
:0E05CC000FD5F0DAE4CDFBE4CCFAE4C8F92256
:0D05DA00E6FB08E6F908E6FA08E6CBF82291
:0C05E700E0F8A3E0F9A3E0FAA3E0FB2297
:0D05F300E2FB08E2F908E2FA08E2CBF82288
:10060000E493F8740193F9740293FA740393FB2250
:00000001FF
